{
  "_format": "hh-sol-artifact-1",
  "contractName": "Kickstarter",
  "sourceName": "contracts/Kickstarter.sol",
  "abi": [
    {
      "inputs": [
        {
          "internalType": "uint256",
          "name": "_projectTax",
          "type": "uint256"
        }
      ],
      "stateMutability": "nonpayable",
      "type": "constructor"
    },
    {
      "inputs": [],
      "name": "Kickstarter__NotOwner",
      "type": "error"
    },
    {
      "inputs": [],
      "name": "Kickstarter__TransferFailed",
      "type": "error"
    },
    {
      "anonymous": false,
      "inputs": [
        {
          "indexed": false,
          "internalType": "uint256",
          "name": "id",
          "type": "uint256"
        },
        {
          "indexed": false,
          "internalType": "string",
          "name": "actionType",
          "type": "string"
        },
        {
          "indexed": true,
          "internalType": "address",
          "name": "executor",
          "type": "address"
        },
        {
          "indexed": false,
          "internalType": "uint256",
          "name": "timestamp",
          "type": "uint256"
        }
      ],
      "name": "Action",
      "type": "event"
    },
    {
      "inputs": [
        {
          "internalType": "uint256",
          "name": "id",
          "type": "uint256"
        }
      ],
      "name": "backProject",
      "outputs": [
        {
          "internalType": "bool",
          "name": "",
          "type": "bool"
        }
      ],
      "stateMutability": "payable",
      "type": "function"
    },
    {
      "inputs": [],
      "name": "balance",
      "outputs": [
        {
          "internalType": "uint256",
          "name": "",
          "type": "uint256"
        }
      ],
      "stateMutability": "view",
      "type": "function"
    },
    {
      "inputs": [
        {
          "internalType": "uint256",
          "name": "_taxPct",
          "type": "uint256"
        }
      ],
      "name": "changeTax",
      "outputs": [],
      "stateMutability": "nonpayable",
      "type": "function"
    },
    {
      "inputs": [
        {
          "internalType": "string",
          "name": "title",
          "type": "string"
        },
        {
          "internalType": "string",
          "name": "description",
          "type": "string"
        },
        {
          "internalType": "string",
          "name": "imageURL",
          "type": "string"
        },
        {
          "internalType": "uint256",
          "name": "cost",
          "type": "uint256"
        },
        {
          "internalType": "uint256",
          "name": "expiresAt",
          "type": "uint256"
        }
      ],
      "name": "createProject",
      "outputs": [
        {
          "internalType": "bool",
          "name": "",
          "type": "bool"
        }
      ],
      "stateMutability": "nonpayable",
      "type": "function"
    },
    {
      "inputs": [
        {
          "internalType": "uint256",
          "name": "id",
          "type": "uint256"
        }
      ],
      "name": "deleteProject",
      "outputs": [
        {
          "internalType": "bool",
          "name": "",
          "type": "bool"
        }
      ],
      "stateMutability": "nonpayable",
      "type": "function"
    },
    {
      "inputs": [
        {
          "internalType": "uint256",
          "name": "id",
          "type": "uint256"
        }
      ],
      "name": "getBackers",
      "outputs": [
        {
          "components": [
            {
              "internalType": "address",
              "name": "owner",
              "type": "address"
            },
            {
              "internalType": "uint256",
              "name": "contribution",
              "type": "uint256"
            },
            {
              "internalType": "uint256",
              "name": "timestamp",
              "type": "uint256"
            },
            {
              "internalType": "bool",
              "name": "refunded",
              "type": "bool"
            }
          ],
          "internalType": "struct Kickstarter.backerStruct[]",
          "name": "",
          "type": "tuple[]"
        }
      ],
      "stateMutability": "view",
      "type": "function"
    },
    {
      "inputs": [
        {
          "internalType": "uint256",
          "name": "id",
          "type": "uint256"
        }
      ],
      "name": "getProject",
      "outputs": [
        {
          "components": [
            {
              "internalType": "uint256",
              "name": "id",
              "type": "uint256"
            },
            {
              "internalType": "address",
              "name": "owner",
              "type": "address"
            },
            {
              "internalType": "string",
              "name": "title",
              "type": "string"
            },
            {
              "internalType": "string",
              "name": "description",
              "type": "string"
            },
            {
              "internalType": "string",
              "name": "imageURL",
              "type": "string"
            },
            {
              "internalType": "uint256",
              "name": "cost",
              "type": "uint256"
            },
            {
              "internalType": "uint256",
              "name": "raised",
              "type": "uint256"
            },
            {
              "internalType": "uint256",
              "name": "timestamp",
              "type": "uint256"
            },
            {
              "internalType": "uint256",
              "name": "expiresAt",
              "type": "uint256"
            },
            {
              "internalType": "uint256",
              "name": "backers",
              "type": "uint256"
            },
            {
              "internalType": "enum Kickstarter.statusEnum",
              "name": "status",
              "type": "uint8"
            }
          ],
          "internalType": "struct Kickstarter.projectStruct",
          "name": "",
          "type": "tuple"
        }
      ],
      "stateMutability": "view",
      "type": "function"
    },
    {
      "inputs": [],
      "name": "getProjects",
      "outputs": [
        {
          "components": [
            {
              "internalType": "uint256",
              "name": "id",
              "type": "uint256"
            },
            {
              "internalType": "address",
              "name": "owner",
              "type": "address"
            },
            {
              "internalType": "string",
              "name": "title",
              "type": "string"
            },
            {
              "internalType": "string",
              "name": "description",
              "type": "string"
            },
            {
              "internalType": "string",
              "name": "imageURL",
              "type": "string"
            },
            {
              "internalType": "uint256",
              "name": "cost",
              "type": "uint256"
            },
            {
              "internalType": "uint256",
              "name": "raised",
              "type": "uint256"
            },
            {
              "internalType": "uint256",
              "name": "timestamp",
              "type": "uint256"
            },
            {
              "internalType": "uint256",
              "name": "expiresAt",
              "type": "uint256"
            },
            {
              "internalType": "uint256",
              "name": "backers",
              "type": "uint256"
            },
            {
              "internalType": "enum Kickstarter.statusEnum",
              "name": "status",
              "type": "uint8"
            }
          ],
          "internalType": "struct Kickstarter.projectStruct[]",
          "name": "",
          "type": "tuple[]"
        }
      ],
      "stateMutability": "view",
      "type": "function"
    },
    {
      "inputs": [
        {
          "internalType": "uint256",
          "name": "id",
          "type": "uint256"
        }
      ],
      "name": "payOutProject",
      "outputs": [
        {
          "internalType": "bool",
          "name": "",
          "type": "bool"
        }
      ],
      "stateMutability": "nonpayable",
      "type": "function"
    },
    {
      "inputs": [],
      "name": "projectCount",
      "outputs": [
        {
          "internalType": "uint256",
          "name": "",
          "type": "uint256"
        }
      ],
      "stateMutability": "view",
      "type": "function"
    },
    {
      "inputs": [
        {
          "internalType": "uint256",
          "name": "",
          "type": "uint256"
        }
      ],
      "name": "projectExist",
      "outputs": [
        {
          "internalType": "bool",
          "name": "",
          "type": "bool"
        }
      ],
      "stateMutability": "view",
      "type": "function"
    },
    {
      "inputs": [],
      "name": "projectTax",
      "outputs": [
        {
          "internalType": "uint256",
          "name": "",
          "type": "uint256"
        }
      ],
      "stateMutability": "view",
      "type": "function"
    },
    {
      "inputs": [
        {
          "internalType": "uint256",
          "name": "id",
          "type": "uint256"
        }
      ],
      "name": "requestRefund",
      "outputs": [
        {
          "internalType": "bool",
          "name": "",
          "type": "bool"
        }
      ],
      "stateMutability": "nonpayable",
      "type": "function"
    },
    {
      "inputs": [],
      "name": "stats",
      "outputs": [
        {
          "internalType": "uint256",
          "name": "totalProjects",
          "type": "uint256"
        },
        {
          "internalType": "uint256",
          "name": "totalBacking",
          "type": "uint256"
        },
        {
          "internalType": "uint256",
          "name": "totalDonations",
          "type": "uint256"
        }
      ],
      "stateMutability": "view",
      "type": "function"
    },
    {
      "inputs": [
        {
          "internalType": "uint256",
          "name": "id",
          "type": "uint256"
        },
        {
          "internalType": "string",
          "name": "title",
          "type": "string"
        },
        {
          "internalType": "string",
          "name": "description",
          "type": "string"
        },
        {
          "internalType": "string",
          "name": "imageURL",
          "type": "string"
        },
        {
          "internalType": "uint256",
          "name": "expiresAt",
          "type": "uint256"
        }
      ],
      "name": "updateProject",
      "outputs": [
        {
          "internalType": "bool",
          "name": "",
          "type": "bool"
        }
      ],
      "stateMutability": "nonpayable",
      "type": "function"
    }
  ],
  "bytecode": "0x60a06040523480156200001157600080fd5b50604051620026de380380620026de833981016040819052620000349162000041565b336080526000556200005f565b600060208284031215620000585762000058600080fd5b5051919050565b60805161264e62000090600039600081816106a6015281816107a001528181610f18015261179b015261264e6000f3fe6080604052600436106100e85760003560e01c8063a4b2409e1161008a578063d24cd3ec11610059578063d24cd3ec1461026e578063d80528ae14610284578063dcc60128146102b2578063f0f3f2c8146102d457600080fd5b8063a4b2409e146101eb578063b531dcba1461020b578063b69ef8a81461022b578063c9168b721461024157600080fd5b80634cd0cb28116100c65780634cd0cb28146101685780638593054b146101885780639a3fa8c7146101b85780639f39a194146101d857600080fd5b8063056c29ee146100ed57806336fbad26146101235780633e45c8af14610146575b600080fd5b3480156100f957600080fd5b5061010d610108366004611a59565b610301565b60405161011a9190611b2b565b60405180910390f35b34801561012f57600080fd5b5061013960015481565b60405161011a9190611b3f565b34801561015257600080fd5b50610166610161366004611b4d565b61069b565b005b34801561017457600080fd5b5061010d610183366004611b4d565b610702565b34801561019457600080fd5b5061010d6101a3366004611b4d565b60096020526000908152604090205460ff1681565b3480156101c457600080fd5b5061010d6101d3366004611b6e565b610879565b61010d6101e6366004611b4d565b610a3a565b3480156101f757600080fd5b5061010d610206366004611b4d565b610dc1565b34801561021757600080fd5b5061010d610226366004611b4d565b610e79565b34801561023757600080fd5b5061013960025481565b34801561024d57600080fd5b5061026161025c366004611b4d565b610f5f565b60405161011a9190611ce0565b34801561027a57600080fd5b5061013960005481565b34801561029057600080fd5b506003546004546005546102a392919083565b60405161011a93929190611cf8565b3480156102be57600080fd5b506102c7611001565b60405161011a9190611f1a565b3480156102e057600080fd5b506102f46102ef366004611b4d565b61129c565b60405161011a9190611f2b565b60008086511161032c5760405162461bcd60e51b815260040161032390611f73565b60405180910390fd5b600085511161034d5760405162461bcd60e51b815260040161032390611fb7565b600084511161036e5760405162461bcd60e51b815260040161032390611ffb565b6000831161038e5760405162461bcd60e51b81526004016103239061203f565b6103966118d7565b600180548252336020830190815260408301898152606084018990526080840188905260a084018790524260e0850152610100840186905260068054938401815560005283517ff652222313e28459528d920b65115c16c04f3efc82aaedc97be59f3f377c0d3f600b90940293840190815591517ff652222313e28459528d920b65115c16c04f3efc82aaedc97be59f3f377c0d408401805473ffffffffffffffffffffffffffffffffffffffff19166001600160a01b039092169190911790555183927ff652222313e28459528d920b65115c16c04f3efc82aaedc97be59f3f377c0d4101906104879082612131565b506060820151600382019061049c9082612131565b50608082015160048201906104b19082612131565b5060a0820151600582015560c0820151600682015560e0820151600782015561010082015160088201556101208201516009820155610140820151600a8201805460ff1916600183600481111561050a5761050a611d76565b021790555050600180546000908152600960209081526040808320805460ff1916851790553383526007825280832080548086018255908452928290208651600b9094020192835590850151928201805473ffffffffffffffffffffffffffffffffffffffff19166001600160a01b039094169390931790925590830151839250600282019061059a9082612131565b50606082015160038201906105af9082612131565b50608082015160048201906105c49082612131565b5060a0820151600582015560c0820151600682015560e0820151600782015561010082015160088201556101208201516009820155610140820151600a8201805460ff1916600183600481111561061d5761061d611d76565b0217905550505060016003600001600082825461063a919061220b565b90915550506001805433917faee8e5d3bbb2f71a951b5632cee20f7ac487b9f8ab4f66a236f7694b13af7c6a919060006106738361221e565b919050554260405161068692919061226c565b60405180910390a25060019695505050505050565b336001600160a01b037f000000000000000000000000000000000000000000000000000000000000000016146106fd576040517f91b76fd800000000000000000000000000000000000000000000000000000000815260040160405180910390fd5b600055565b600080600683815481106107185761071861229a565b60009182526020909120600a600b90920201015460ff16600481111561074057610740611d76565b1461075d5760405162461bcd60e51b8152600401610323906122e4565b600682815481106107705761077061229a565b60009182526020909120600b90910201600101546001600160a01b03163314806107c25750336001600160a01b037f000000000000000000000000000000000000000000000000000000000000000016145b6107de5760405162461bcd60e51b815260040161032390612328565b6003600683815481106107f3576107f361229a565b60009182526020909120600a600b9092020101805460ff1916600183600481111561082057610820611d76565b021790555061082e82611558565b336001600160a01b03167faee8e5d3bbb2f71a951b5632cee20f7ac487b9f8ab4f66a236f7694b13af7c6a834260405161086992919061236c565b60405180910390a2506001919050565b60006006868154811061088e5761088e61229a565b60009182526020909120600b90910201600101546001600160a01b031633146108c95760405162461bcd60e51b815260040161032390612328565b60008551116108ea5760405162461bcd60e51b815260040161032390611f73565b600084511161090b5760405162461bcd60e51b815260040161032390611fb7565b600083511161092c5760405162461bcd60e51b815260040161032390611ffb565b84600687815481106109405761094061229a565b90600052602060002090600b0201600201908161095d9190612131565b5083600687815481106109725761097261229a565b90600052602060002090600b0201600301908161098f9190612131565b5082600687815481106109a4576109a461229a565b90600052602060002090600b020160040190816109c19190612131565b5081600687815481106109d6576109d661229a565b90600052602060002090600b020160080181905550336001600160a01b03167faee8e5d3bbb2f71a951b5632cee20f7ac487b9f8ab4f66a236f7694b13af7c6a8742604051610a269291906123bf565b60405180910390a250600195945050505050565b6000803411610a5b5760405162461bcd60e51b815260040161032390612412565b60008281526009602052604090205460ff16610a895760405162461bcd60e51b815260040161032390612456565b600060068381548110610a9e57610a9e61229a565b60009182526020909120600a600b90920201015460ff166004811115610ac657610ac6611d76565b14610ae35760405162461bcd60e51b8152600401610323906122e4565b600160036001016000828254610af9919061220b565b909155505060058054349190600090610b1390849061220b565b925050819055503460068381548110610b2e57610b2e61229a565b90600052602060002090600b02016006016000828254610b4e919061220b565b92505081905550600160068381548110610b6a57610b6a61229a565b90600052602060002090600b02016009016000828254610b8a919061220b565b90915550506000828152600860209081526040808320815160808101835233808252348286019081524283860181815260608501898152865460018082018955978b529890992094516004909802909401805473ffffffffffffffffffffffffffffffffffffffff19166001600160a01b039098169790971787559051938601939093559051600285015593516003909301805460ff191693151593909317909255517faee8e5d3bbb2f71a951b5632cee20f7ac487b9f8ab4f66a236f7694b13af7c6a91610c5b9186919061249a565b60405180910390a260068281548110610c7657610c7661229a565b90600052602060002090600b02016005015460068381548110610c9b57610c9b61229a565b90600052602060002090600b02016006015410610d4657600160068381548110610cc757610cc761229a565b60009182526020909120600a600b9092020101805460ff19166001836004811115610cf457610cf4611d76565b021790555060068281548110610d0c57610d0c61229a565b90600052602060002090600b02016006015460026000828254610d2f919061220b565b90915550610d3e9050826116c6565b506001919050565b60068281548110610d5957610d5961229a565b90600052602060002090600b0201600801544210610d3e57600260068381548110610d8657610d8661229a565b60009182526020909120600a600b9092020101805460ff19166001836004811115610db357610db3611d76565b0217905550610d3e82611558565b6000600260068381548110610dd857610dd861229a565b60009182526020909120600a600b90920201015460ff166004811115610e0057610e00611d76565b141580610e485750600360068381548110610e1d57610e1d61229a565b60009182526020909120600a600b90920201015460ff166004811115610e4557610e45611d76565b14155b610e645760405162461bcd60e51b8152600401610323906124b9565b600260068381548110610d8657610d8661229a565b6000600160068381548110610e9057610e9061229a565b60009182526020909120600a600b90920201015460ff166004811115610eb857610eb8611d76565b14610ed55760405162461bcd60e51b81526004016103239061254e565b60068281548110610ee857610ee861229a565b60009182526020909120600b90910201600101546001600160a01b0316331480610f3a5750336001600160a01b037f000000000000000000000000000000000000000000000000000000000000000016145b610f565760405162461bcd60e51b815260040161032390612328565b610d3e826116c6565b606060086000838152602001908152602001600020805480602002602001604051908101604052809291908181526020016000905b82821015610ff6576000848152602090819020604080516080810182526004860290920180546001600160a01b03168352600180820154848601526002820154928401929092526003015460ff16151560608301529083529092019101610f94565b505050509050919050565b60606006805480602002602001604051908101604052809291908181526020016000905b828210156112935760008481526020908190206040805161016081018252600b86029092018054835260018101546001600160a01b0316938301939093526002830180549293929184019161107990612065565b80601f01602080910402602001604051908101604052809291908181526020018280546110a590612065565b80156110f25780601f106110c7576101008083540402835291602001916110f2565b820191906000526020600020905b8154815290600101906020018083116110d557829003601f168201915b5050505050815260200160038201805461110b90612065565b80601f016020809104026020016040519081016040528092919081815260200182805461113790612065565b80156111845780601f1061115957610100808354040283529160200191611184565b820191906000526020600020905b81548152906001019060200180831161116757829003601f168201915b5050505050815260200160048201805461119d90612065565b80601f01602080910402602001604051908101604052809291908181526020018280546111c990612065565b80156112165780601f106111eb57610100808354040283529160200191611216565b820191906000526020600020905b8154815290600101906020018083116111f957829003601f168201915b505050918352505060058201546020820152600682015460408201526007820154606082015260088201546080820152600982015460a0820152600a82015460c09091019060ff16600481111561126f5761126f611d76565b600481111561128057611280611d76565b8152505081526020019060010190611025565b50505050905090565b6112a46118d7565b60008281526009602052604090205460ff166112d25760405162461bcd60e51b815260040161032390612456565b600682815481106112e5576112e561229a565b90600052602060002090600b020160405180610160016040529081600082015481526020016001820160009054906101000a90046001600160a01b03166001600160a01b03166001600160a01b0316815260200160028201805461134890612065565b80601f016020809104026020016040519081016040528092919081815260200182805461137490612065565b80156113c15780601f10611396576101008083540402835291602001916113c1565b820191906000526020600020905b8154815290600101906020018083116113a457829003601f168201915b505050505081526020016003820180546113da90612065565b80601f016020809104026020016040519081016040528092919081815260200182805461140690612065565b80156114535780601f1061142857610100808354040283529160200191611453565b820191906000526020600020905b81548152906001019060200180831161143657829003601f168201915b5050505050815260200160048201805461146c90612065565b80601f016020809104026020016040519081016040528092919081815260200182805461149890612065565b80156114e55780601f106114ba576101008083540402835291602001916114e5565b820191906000526020600020905b8154815290600101906020018083116114c857829003601f168201915b505050918352505060058201546020820152600682015460408201526007820154606082015260088201546080820152600982015460a0820152600a82015460c09091019060ff16600481111561153e5761153e611d76565b600481111561154f5761154f611d76565b90525092915050565b60005b6000828152600860205260409020548110156116c25760008281526008602052604081208054839081106115915761159161229a565b6000918252602080832060049092029091015485835260089091526040822080546001600160a01b03909216935090849081106115d0576115d061229a565b9060005260206000209060040201600101549050600160086000868152602001908152602001600020848154811061160a5761160a61229a565b906000526020600020906004020160030160006101000a81548160ff021916908315150217905550426008600086815260200190815260200160002084815481106116575761165761229a565b906000526020600020906004020160020181905550611676828261183c565b60016003600101600082825461168c919061255e565b9091555050600580548291906000906116a690849061255e565b92505081905550505080806116ba9061221e565b91505061155b565b5050565b6000600682815481106116db576116db61229a565b90600052602060002090600b020160060154905060006064600054836117019190612571565b61170b91906125a6565b90506004600684815481106117225761172261229a565b60009182526020909120600a600b9092020101805460ff1916600183600481111561174f5761174f611d76565b02179055506117966006848154811061176a5761176a61229a565b600091825260209091206001600b9092020101546001600160a01b0316611791838561255e565b61183c565b6117c07f00000000000000000000000000000000000000000000000000000000000000008261183c565b600683815481106117d3576117d361229a565b90600052602060002090600b020160060154600260008282546117f6919061255e565b909155505060405133907faee8e5d3bbb2f71a951b5632cee20f7ac487b9f8ab4f66a236f7694b13af7c6a9061182f90869042906125ee565b60405180910390a2505050565b6000826001600160a01b0316826040516118559061260d565b60006040518083038185875af1925050503d8060008114611892576040519150601f19603f3d011682016040523d82523d6000602084013e611897565b606091505b50509050806118d2576040517f98343ae900000000000000000000000000000000000000000000000000000000815260040160405180910390fd5b505050565b6040518061016001604052806000815260200160006001600160a01b0316815260200160608152602001606081526020016060815260200160008152602001600081526020016000815260200160008152602001600081526020016000600481111561194557611945611d76565b905290565b634e487b7160e01b600052604160045260246000fd5b601f19601f830116810181811067ffffffffffffffff821117156119865761198661194a565b6040525050565b600061199860405190565b90506119a48282611960565b919050565b600067ffffffffffffffff8211156119c3576119c361194a565b601f19601f83011660200192915050565b82818337506000910152565b60006119f36119ee846119a9565b61198d565b905082815260208101848484011115611a0e57611a0e600080fd5b611a198482856119d4565b509392505050565b600082601f830112611a3557611a35600080fd5b8135611a458482602086016119e0565b949350505050565b50565b80355b92915050565b600080600080600060a08688031215611a7457611a74600080fd5b853567ffffffffffffffff811115611a8e57611a8e600080fd5b611a9a88828901611a21565b955050602086013567ffffffffffffffff811115611aba57611aba600080fd5b611ac688828901611a21565b945050604086013567ffffffffffffffff811115611ae657611ae6600080fd5b611af288828901611a21565b9350506060611b0388828901611a50565b9250506080611b1488828901611a50565b9150509295509295909350565b8015155b82525050565b60208101611a538284611b21565b80611b25565b60208101611a538284611b39565b600060208284031215611b6257611b62600080fd5b6000611a458484611a50565b600080600080600060a08688031215611b8957611b89600080fd5b6000611b958888611a50565b955050602086013567ffffffffffffffff811115611bb557611bb5600080fd5b611bc188828901611a21565b945050604086013567ffffffffffffffff811115611be157611be1600080fd5b611bed88828901611a21565b935050606086013567ffffffffffffffff811115611c0d57611c0d600080fd5b611b0388828901611a21565b60006001600160a01b038216611a53565b611b2581611c19565b80516080830190611c448482611c2a565b506020820151611c576020850182611b39565b506040820151611c6a6040850182611b39565b506060820151611c7d6060850182611b21565b50505050565b6000611c8f8383611c33565b505060800190565b6000611ca1825190565b80845260209384019383018060005b83811015611cd5578151611cc48882611c83565b975060208301925050600101611cb0565b509495945050505050565b60208082528101611cf18184611c97565b9392505050565b60608101611d068286611b39565b611d136020830185611b39565b611a456040830184611b39565b60005b83811015611d3b578181015183820152602001611d23565b50506000910152565b6000611d4e825190565b808452602084019350611d65818560208601611d20565b601f01601f19169290920192915050565b634e487b7160e01b600052602160045260246000fd5b60058110611a4d57611a4d611d76565b806119a481611d8c565b6000611a5382611d9c565b611b2581611da6565b8051600090610160840190611dcf8582611b39565b506020830151611de26020860182611c2a565b5060408301518482036040860152611dfa8282611d44565b91505060608301518482036060860152611e148282611d44565b91505060808301518482036080860152611e2e8282611d44565b91505060a0830151611e4360a0860182611b39565b5060c0830151611e5660c0860182611b39565b5060e0830151611e6960e0860182611b39565b50610100830151611e7e610100860182611b39565b50610120830151611e93610120860182611b39565b50610140830151611a19610140860182611db1565b6000611cf18383611dba565b6000611ebe825190565b80845260208401935083602082028501611ed88560200190565b8060005b85811015611f0d5784840389528151611ef58582611ea8565b94506020830160209a909a0199925050600101611edc565b5091979650505050505050565b60208082528101611cf18184611eb4565b60208082528101611cf18184611dba565b601581526000602082017f5469746c652063616e6e6f7420626520656d7074790000000000000000000000815291505b5060200190565b60208082528101611a5381611f3c565b601b81526000602082017f4465736372697074696f6e2063616e6e6f7420626520656d707479000000000081529150611f6c565b60208082528101611a5381611f83565b601881526000602082017f496d61676555524c2063616e6e6f7420626520656d707479000000000000000081529150611f6c565b60208082528101611a5381611fc7565b601381526000602082017f436f73742063616e6e6f74206265207a65726f0000000000000000000000000081529150611f6c565b60208082528101611a538161200b565b634e487b7160e01b600052602260045260246000fd5b60028104600182168061207957607f821691505b60208210810361208b5761208b61204f565b50919050565b6000611a5361209d8381565b90565b6120a983612091565b81546008840282811b60001990911b908116901990911617825550505050565b60006118d28184846120a0565b818110156116c2576120e96000826120c9565b6001016120d6565b601f8211156118d2576000818152602090206020601f850104810160208510156121185750805b61212a6020601f8601048301826120d6565b5050505050565b815167ffffffffffffffff81111561214b5761214b61194a565b6121558254612065565b6121608282856120f1565b6020601f831160018114612194576000841561217c5750858201515b600019600886021c19811660028602178655506121ed565b600085815260208120601f198616915b828110156121c457888501518255602094850194600190920191016121a4565b868310156121e05784890151600019601f89166008021c191682555b6001600288020188555050505b505050505050565b634e487b7160e01b600052601160045260246000fd5b80820180821115611a5357611a536121f5565b60006000198203612231576122316121f5565b5060010190565b600f81526000602082017f50524f4a4543542043524541544544000000000000000000000000000000000081529150611f6c565b6060810161227a8285611b39565b818103602083015261228b81612238565b9050611cf16040830184611b39565b634e487b7160e01b600052603260045260246000fd5b601881526000602082017f50726f6a656374206e6f206c6f6e676572206f70656e6564000000000000000081529150611f6c565b60208082528101611a53816122b0565b601381526000602082017f556e617574686f72697a656420456e746974790000000000000000000000000081529150611f6c565b60208082528101611a53816122f4565b600f81526000602082017f50524f4a4543542044454c45544544000000000000000000000000000000000081529150611f6c565b6060810161237a8285611b39565b818103602083015261228b81612338565b600f81526000602082017f50524f4a4543542055504441544544000000000000000000000000000000000081529150611f6c565b606081016123cd8285611b39565b818103602083015261228b8161238b565b601f81526000602082017f4574686572206d7573742062652067726561746572207468616e207a65726f0081529150611f6c565b60208082528101611a53816123de565b601181526000602082017f50726f6a656374206e6f7420666f756e6400000000000000000000000000000081529150611f6c565b60208082528101611a5381612422565b600e81526000602082017f50524f4a454354204241434b454400000000000000000000000000000000000081529150611f6c565b606081016124a88285611b39565b818103602083015261228b81612466565b60208082528101611a5381602681527f50726f6a656374206e6f74206d61726b656420617320726576657274206f722060208201527f64656c6574650000000000000000000000000000000000000000000000000000604082015260600190565b601481526000602082017f50726f6a656374206e6f7420415050524f56454400000000000000000000000081529150611f6c565b60208082528101611a538161251a565b81810381811115611a5357611a536121f5565b818102808215838204851417612589576125896121f5565b5092915050565b634e487b7160e01b600052601260045260246000fd5b6000826125b5576125b5612590565b500490565b601081526000602082017f50524f4a4543542050414944204f55540000000000000000000000000000000081529150611f6c565b606081016125fc8285611b39565b818103602083015261228b816125ba565b6000611a538261209d56fea2646970667358221220ad2aba9847dc203403788ce3de2cc43a9235c95494d87e21762ab1d921f6fa3d64736f6c63430008110033",
  "linkReferences": {},
  "deployedLinkReferences": {}
}